:0400000002001132B7
:03000B0002007D73
:03006A0002000E83
:03000E000200FFEE
:10006D00438901758A30758CF8D2A9D2AFD28C2212
:10007D00C020C0E0C0F0C082C083C007C006C0056C
:10008D00C004C003C002C001C000C0D075D000754F
:10009D008A30758CF8900064E0FCA3E0FDA3E0FECF
:1000AD00A3E0FFE4C0E0C0E07480C0E0743FC0E0B6
:1000BD008C828D838EF0EF121E9EAC82AD83AEF0DE
:1000CD00FFE58124FCF581900064ECF0EDA3F0EEEA
:1000DD00A3F0EFA3F0D0D0D000D001D002D003D048
:1000ED0004D005D006D007D083D082D0F0D0E0D098
:1000FD00203212006D1218A31201951202CD120DAD
:03010D00B880F5C2
:0441EB0000000000D0
:10011000903733E493FE740193FF8E828F8312171E
:10012000B4900064E4F0A3F0A3F0A3F090001FF0FB
:10013000A3F09000107414F09000127448F0900036
:1001400011F0900015E4F0A3F07440A3F074C0A384
:10015000F0900023E4F0A3F0900021F0A3F09000D1
:10016000197480F0E4A3F0121C72AE82AF8374990C
:10017000C0E07401C0E08E828F831222DAAE82AFBB
:10018000831581158174142EFEE43FFF90001BEE51
:10019000F0EFA3F02290001F1217B474FFC0E0C06C
:1001A000E0741AC0E0E4C0E0746CC0E0E4C0E07445
:1001B00019C0E0E4C0E090000A1216F0E58124F8CE
:1001C000F58174FFC0E0C0E07459C0E0E4C0E074A1
:1001D0006CC0E0E4C0E07458C0E0E4C0E090000A05
:1001E0001216F0E58124F8F5817401C0E0C4C0E086
:1001F0007443C0E07437C0E07480C0E0741FC0E096
:10020000E4C0E074E0C0E074FFC0E0741EC0E0E44D
:10021000C0E090001412130DE58124F5F5817401FE
:10022000C0E0C4C0E0744AC0E07437C0E07480C06D
:10023000E0741FC0E0E4C0E074E0C0E074FFC0E020
:100240007432C0E0E4C0E090001E12130DE581247A
:10025000F5F5817401C0E0C4C0E0744FC0E07437AC
:10026000C0E07480C0E0741FC0E0E4C0E074E0C08F
:10027000E07407C0E07446C0E0E4C0E090002812DB
:10028000130DE58124F5F581900059E0FEA3E0FF10
:10029000EE24EEFEEF34FFFF7401C0E0C4C0E07452
:1002A00057C0E07437C0E07480C0E0741FC0E0E461
:1002B000C0E014C0E0C0E0C006C007900000121209
:1002C0006AE58124F5F58120B5FD020110C008E53D
:1002D00081F5082416F581E5082409F8768008766A
:1002E00000C200900064E0FCA3E0FDA3E0FEA3E0F8
:1002F000FFE508240FF8A60408A60508A60608A628
:1003000007E5082413F8A60408A60508A60608A60B
:1003100007C020E4C0E0C0E07480C0E0E4C0E07446
:100320008CC0E0E4C0E090000012151EE58124FAC4
:10033000F581D020C02090373FE493C0E074019352
:10034000C0E07491C0E0E4C0E07440C0E0E4C0E00C
:10035000748DC0E0E4C0E09000001216F0E5812446
:10036000F8F581D020C020903741E493C0E07401BB
:1003700093C0E07491C0E0E4C0E07480C0E0E4C0E9
:10038000E0748DC0E0E4C0E09000401216F0E5811A
:1003900024F8F581D020C020E4C0E0C0E07480C023
:1003A000E0E4C0E07490C0E0E4C0E090000012150A
:1003B0001EE58124FAF581D020C02090373DE493DA
:1003C000C0E0740193C0E074A1C0E0E4C0E07480B8
:1003D000C0E0E4C0E07491C0E0E4C0E0900000122E
:1003E00016F0E58124F8F581D020E5082407F8E42B
:1003F000F608F6C020900064E0C0E0A3E0C0E0A3EF
:10040000E0C0E0A3E0C0E0E508240FF8868208869B
:10041000830886F008E6121E6EAD82E58124FCF5A5
:1004200081D020ED7003020677E5082407F8C3E6C3
:10043000940508E664809480400302067720B52581
:10044000900011E0FD24FD5011900015E4F0A3F0A0
:100450007440A3F074C0A3F0800B900015E4F0A3E7
:10046000F0A3F0A3F0E5082413F8E508240BF9E65F
:10047000F708E609F708E609F708E609F7900064C7
:10048000E0FAA3E0FBA3E0FEA3E0FFE5082413F8F5
:10049000A60208A60308A60608A607C020E50824A9
:1004A0000BF8E6C0E008E6C0E008E6C0E008E6C0F9
:1004B000E0E5082413F886820886830886F008E6BB
:1004C000121C67AC82AD83AEF0FFE58124FCF581A0
:1004D000D020C020E4C0E0C0E0747AC0E07444C022
:1004E000E08C828D838EF0EF1220E8AF82AE83AD78
:1004F000F0FCE58124FCF581D020900015A80808C7
:10050000E0F6A3E008F6A3E008F6A3E008F6C020B2
:10051000C007C006C005C00490CCCD75F01C744166
:10052000121D4FAC82AD83AEF0FFE58124FCF58156
:10053000D020C020C004C005C006C007A808088697
:10054000820886830886F008E6121E9EA80808A680
:100550008208A68308A6F008F6E58124FCF581D080
:1005600020900015A80808E6F008E6A3F008E6A326
:10057000F008E6A3F0900011E0F582C0201221C738
:10058000AA82AB83AEF0FFD020C020A80808E6C046
:10059000E008E6C0E008E6C0E008E6C0E08A828B3A
:1005A000838EF0EF121E9EAC82AD83AEF0FFE5812C
:1005B00024FCF581D0208C828D838EF0EFC0201238
:1005C00021D2AF82D020900011EFF0900019E0FE10
:1005D000A3E0FF1EBEFF011F900019EEF0EFA3F095
:1005E000C3EE94F4EF6480947F503E9000197480C1
:1005F000F0E4A3F0C020121C72AE82AF83D020C002
:10060000207486C0E07401C0E08E828F831222DAEB
:10061000AE82AF8315811581D020740A2EFEE43F8F
:10062000FF90001BEEF0EFA3F0C020E4C0E0C0E0BC
:100630007420C0E07442C0E0E508240FF886820808
:1006400086830886F008E6121E9EAC82AD83AEF06B
:10065000FFE58124FCF581D020E508240FF8A604ED
:1006600008A60508A60608A607E5082407F806B6A2
:10067000000208060203F3900019E0FEA3E0FF3039
:10068000E70302095CC3EE9480EF6480948040032A
:1006900002095C90001BE0FEA3E0FF900019E0FC63
:1006A000A3E0FD74032CFCE43DFDC020903737E44B
:1006B00093C0E0740193C0E0C006C007E4C0E0C08E
:1006C000E08C828D8312158EE58124FAF581D0208D
:1006D00090001BE0FEA3E0FF74252EFEE43FFF8E9A
:1006E000048F05748CC39CFCE49DFD900019E0FA16
:1006F000A3E0FB74032AFAE43BFBC020903737E405
:1007000093C0E0740193C0E0C004C005C006C007F8
:100710008A828B8312158EE58124FAF581D0209090
:10072000001BE0FEA3E0FF900019E0FCA3E0FDC089
:1007300020903739E493C0E0740193C0E0C006C054
:1007400007E4C0E0C0E08C828D8312158EE5812421
:10075000FAF581D02090001BE0FEA3E0FF74252E67
:10076000FEE43FFF8E048F05748CC39CFCE49DFD6A
:10077000900019E0FAA3E0FBC020903739E493C061
:10078000E0740193C0E0C004C005C006C0078A82BF
:100790008B8312158EE58124FAF581D02090001B01
:1007A000E0FEA3E0FF900019E0FCA3E0FDC020C044
:1007B00006C007C004C005C006C0078C828D831226
:1007C0001AC5E58124FAF581D02090373BE493FEE9
:1007D000740193FF8E828F83C020121777D02090F0
:1007E000001BE0FEA3E0FF74242EFEE43FFF900018
:1007F00019E0FCA3E0FDC020C006C007C004C0058E
:10080000C006C0078C828D83121AC5E58124FAF5D3
:1008100081D02090373BE493FE740193FF8E828F4A
:1008200083C020121777D02090001BE0FEA3E0FFCA
:10083000EE24FAFEEF34FFFF900019E0FCA3E0FD88
:10084000C020C006C007C004C005C006C0078C8217
:100850008D83121AC5E58124FAF581D02090373BAB
:10086000E493FE740193FF8E828F83C0201217776A
:10087000D02090001BE0FEA3E0FF742A2EFEE43F90
:10088000FF900019E0FCA3E0FDC020C006C007C037
:1008900004C005C006C0078C828D83121AC5E5818D
:1008A00024FAF581D02090373BE493FE740193FF46
:1008B0008E828F83C020121777D02090001BE0FE1D
:1008C000A3E0FFEE24FAFEEF34FFFF900019E0FCF6
:1008D000A3E0FD74032CFCE43DFDC020C006C0076E
:1008E000C004C005C006C0078C828D83121AC5E5FE
:1008F0008124FAF581D02090373BE493FE74019374
:10090000FF8E828F83C020121777D02090001BE0CB
:10091000FEA3E0FF742A2EFEE43FFF900019E0FCE6
:10092000A3E0FD74032CFCE43DFDC020C006C0071D
:10093000C004C005C006C0078C828D83121AC5E5AD
:100940008124FAF581D02090373BE493FE74019323
:10095000FF8E828F83C020121777D020900019E07D
:10096000FEA3E0FFC374809E74808FF063F08095D7
:10097000F0402F740C2EFEE43FFFC020903733E48C
:1009800093C0E0740193C0E0748CC0E0E4C0E0C0A8
:10099000E0C0E08E828F8312158EE58124FAF58106
:1009A000D0209000217407F0E4A3F0900010E0FF45
:1009B000900021E0FDA3E0FEED2FFD2408FF900054
:1009C000237407F0E4A3F0900012E0FE7D00900095
:1009D00023E0FBA3E0FCEB2EFBEC3DFC8F057E004F
:1009E000C007C006C005C020C003C004C005C006C3
:1009F000C003C0048D828E83121AC5E58124FAF5E6
:100A000081D020903733E493FB740193FC8B828C6C
:100A100083C020121777D020D005D006900023E0A5
:100A2000FBA3E0FCEB24FFFAEC34FFFF900023EA89
:100A3000F0EFA3F0D007EB4C708D9000237407F01B
:100A4000E4A3F0900011E0FF7C00900023E508246F
:100A500005F8E0F6A3E008F68F03E5082405F8E6BC
:100A60002BFB08E63CFCC006C005C020C003C00448
:100A7000C005C006C003C0048D828E83121AC5E56E
:100A80008124FAF581D020D005D006900023E0FB28
:100A9000A3E0C40354F8CBC403CB6BCB54F8CB6BAB
:100AA000FCC005C006900021E0FAA3E0FEEB2AFBA3
:100AB000EC3EFCEB2BFBEC33FCEB24B3F582EC348B
:100AC00036F583E493FDA3E493FE8D828E83C00606
:100AD000C005C020121777D020D005D00690002383
:100AE000E0FDA3E0FEED24FFFBEE34FFFC900023CD
:100AF000EBF0ECA3F0ED4ED006D0056003020A4304
:100B0000900021E0FFA3E0FEEF24FFFAEE34FFFCAB
:100B1000900021EAF0ECA3F0EF4E60030209AB90E5
:100B20000011E0900012F0E5082409F816B6FF0263
:100B30000816E5082409F808E630E70AE50824095C
:100B4000F8768008760090373FE493FF740193FEB7
:100B5000C007C006C0207480C0E0E4C0E0E50824FF
:100B600009F886820886831221DAAA82AC8315816D
:100B70001581D020D006D007C020C007C00674035E
:100B8000C0E0E4C0E0748DC0E0E4C0E08A828C8301
:100B900012158EE58124FAF581D020903741E49337
:100BA000FF740193FEE5082409F8744026FAE4086E
:100BB00036FCC007C006C0207480C0E0E4C0E08AF4
:100BC000828C831221DAAB82AC8315811581D0200F
:100BD000D006D007C020C007C0067403C0E0E4C040
:100BE000E0748DC0E0E4C0E08B828C8312158EE54A
:100BF0008124FAF581D020900011E0FCFA7B00C33B
:100C000074849AE49B5003020DACC004900010E081
:100C1000FF7E0074082FFDE43EFB900019A8080831
:100C2000E0F6A3E008F6A80808E624FCFA08E63493
:100C3000FFFCC3ED9AEB64808CF063F08095F0D0FC
:100C400004405BA80808740426FAE40836FBC3EAEB
:100C50009FEB64808EF063F08095F0404190001B24
:100C6000E0FFA3E0FE7D00C3EC9FED64808EF063A7
:100C7000F08095F05003020DAC74082CFBE43DFDB0
:100C800074242FFAE43EFCC3EA9BEC64808DF0638D
:100C9000F08095F05003020DACD200020D409000A0
:100CA00010E0FC900019E0FAA3E0FB74042AFFE4D2
:100CB0003BFE8C037C00C3EF9BEE64808CF063F002
:100CC0008095F0507B1000028076C02090001FE0DD
:100CD000C0E0A3E0C0E07464C0E07437C0E074809A
:100CE000C0E07425C0E07400C0E0E4C0E012200F52
:100CF000E58124F8F581D020903733E493FB74012B
:100D000093FCC0207401C0E0740CC0E07425C0E006
:100D10007400C0E0E4C0E0C003C004C003C00474B9
:100D200004C0E0E4C0E090004012130DE58124F51A
:100D3000F581D02090001FE02401F0A3E03400F002
:100D4000C02090001FE0C0E0A3E0C0E07464C0E0F9
:100D50007437C0E07480C0E07425C0E07400C0E067
:100D6000E4C0E012200FE58124F8F581D020C020F6
:100D70007401C0E0740CC0E07425C0E07400C0E0F1
:100D8000E4C0E090373393C0E0740193C0E074FF97
:100D9000C0E0C0E07404C0E0E4C0E0900040121382
:100DA0000DE58124F5F581D0200203EA9004B0120C
:100DB0001C0F850881D0082290001F1217B47401FF
:100DC000C0E0C4C0E07467C0E07437C0E07480C0A5
:100DD000E0E4C0E0C0E014C0E0C0E07432C0E0E491
:100DE000C0E090002812130DE58124F5F58174010F
:100DF000C0E0C4C0E0746CC0E07437C0E07480C070
:100E0000E0E4C0E0C0E014C0E0C0E07446C0E0E44C
:100E1000C0E090003212130DE58124F5F5819000B9
:100E20001FE0C0E0A3E0C0E07472C0E07437C0E02F
:100E30007480C0E07425C0E07400C0E0E4C0E0123B
:100E4000200FE58124F8F5817401C0E0C4C0E0748E
:100E500025C0E07400C0E0E4C0E0C0E0C0E074E0A1
:100E6000C0E074FFC0E0745FC0E0E4C0E090000A3E
:100E700012126AE58124F5F581900059E0FEA3E0A5
:100E8000FFEE24EEFEEF34FFFF7401C0E0C4C0E0CB
:100E90007457C0E07437C0E07480C0E0E4C0E0C0C4
:100EA000E014C0E0C0E0C006C00790000012126A63
:0A0EB000E58124F5F58120B5FD224F
:1036B3005E8F5E8F29C529C529C529C529C55E8F9A
:1036C3005E8F29C5F5FFF5FFF5FF29C5FFFF29C566
:1036D3005E8FF5FFF5FFF5FFF5FF29C5FFFF29C550
:1036E30029C529C529C5F5FFF5FFFFFF29C529C54B
:1036F30029C5F5FFF5FFF5FFF5FFF5FF00F800F825
:1037030029C5F5FFF5FFF5FF29C5CEFE00F85E8F4D
:103713005E8F29C5F5FF29C5CEFECEFECEFE5E8F98
:103723005E8F5E8F29C5CEFECEFECEFE5E8F5E8F90
:103733005E8FF5FFE967FFFF000094F70A8F6B9F29
:10374300464C41505059004249524400535443207F
:1037530043353100707265737320627574746F6ED4
:103763000025640047414D45004F564552210073E3
:09377300636F72653A20256400C1
:100EBA00C008858108C082C083C0F005810581A869
:100ECA00080886820886830886F0E5082404F91251
:100EDA0021ABF7A31221AB09F7E50824FBF8860238
:100EEA000886030886048A828B838CF01221ABFF62
:100EFA00A31221ABFEA8080886820886830886F01A
:100F0A00EF121E53A3EE121E538A828B838CF0E5D6
:100F1A00082404F8E6121E53A308E6121E53850895
:100F2A0081D00822C008858108C082C083E5812457
:100F3A000CF581900068E0FCA3E0FDE508240DF8BB
:100F4A00A60408A605E50824F7F88603E50824F7A9
:100F5A00F8EB24E0F6E50824F6F886027B008A041A
:100F6A008B05E50824FCF8EC26FCED0836FD1CBCD4
:100F7A00FF011DC005C0047402C0E0E4C0E08A821B
:100F8A008B831222DAAA82AB8315811581D004D011
:100F9A00058A068B07A80808EE26FEEF0836FF1E0C
:100FAA00BEFF011FC003C002C004C005C006C007BF
:100FBA00E50824FCF8E6C0E008E6C0E0A8080886D0
:100FCA0082088683121AC5E58124FAF581D002D0F7
:100FDA0003E50824F5F8E660030210F4E50824F6B0
:100FEA00F8E4B60C0104FFE50824F7F8E675F010FA
:100FFA00A424F0FD743B35F0FEE50824F7F8E67505
:10100A00F00CA4C8E5082406C8247CF6743735F029
:10101A0008F6E508240AF87600E508240AF8E5083F
:10102A0024F6F9C3E6974003021223EF601DE50890
:10103A002406F8E508240AF9E726F582E40836F5D5
:10104A0083E5082405F8E493F68015E508240AF8F0
:10105A00E62DF582E43EF583E5082405F8E493F6E7
:10106A00E508240BF87600C007E508240BF8860487
:10107A007F00C3EC9AEF64808BF063F08095F0D028
:10108A0007505EE5082405F8E630E023E50824FA6F
:10109A00F88682088683C007C006C005C003C0025E
:1010AA00121777D002D003D005D006D0078021E5E9
:1010BA000824F8F88682088683C007C006C005C0DF
:1010CA0003C002121777D002D003D005D006D0078A
:1010DA00E5082405F8E6C313F6E508240BF80680AC
:1010EA0086E508240AF806021023E50824F6F8E43F
:1010FA00B60C0104FFE50824F7F8E675F010A4C859
:10110A00E5082408C824F0F6743B35F008F6E5082B
:10111A0024F7F8E675F00CA4C8E5082406C8247C70
:10112A00F6743735F008F6E50824FAF8E5082403DA
:10113A00F9E6F708E609F7E508240AF87600E5086B
:10114A00240AF8E50824F6F9C3E6974003021223B5
:10115A00EF601DE5082406F8E508240AF9E726F5F4
:10116A0082E40836F583E508240CF8E493F6801B3C
:10117A00E5082408F8E508240AF9E726F582E408D0
:10118A0036F583E508240CF8E493F6E508240BF811
:10119A007600E508240BF886057E00C3ED9AEE6416
:1011AA00808BF063F08095F05066E5082403F89090
:1011BA000068E6F008E6A3F0E508240CF8E630E05B
:1011CA003EC007E508240AF886047F00E50824FCE7
:1011DA00F8EC26FCEF0836FFA80808ED26FDEE0815
:1011EA0036FEC007C003C002C004C0078D828E83CA
:1011FA0012184715811581D002D003D007D007E510
:10120A0008240CF8E6C313F6E508240BF8068082D6
:10121A00E508240AF806021148E508240DF89000AA
:10122A0068E6F008E6A3F0900059E0FEA3E0FF1E8E
:10123A00BEFF011F900057E0FCA3E0FD1CBCFF01AC
:10124A001DC006C007C004C005E4C0E0C0E09000AD
:10125A0000121AC5E58124FAF581850881D0082291
:10126A00C008858108AE82AF83E50824F5F8868236
:10127A000886830886F0C007C0061220D0AC82AD6B
:10128A0083D006D007900057E0FAA3E0FBEDC40331
:10129A0054F8CCC403CC6CCC54F8CC6CFDEAC39C97
:1012AA00FAEB9DC313CA13CAFBEA2EFEEB3FFFE516
:1012BA000824F3F8E6C0E0E50824F4F8E6C0E0E51F
:1012CA000824F5F8E6C0E008E6C0E008E6C0E0E574
:1012DA000824F8F8E6C0E008E6C0E0E50824FAF8D1
:1012EA00E6C0E008E6C0E0E50824FCF8E6C0E0084D
:1012FA00E6C0E08E828F8312130DE58124F5F58115
:10130A00D00822C008E581F508240BF581AE82AF2A
:10131A0083E5082409F8A60608A607E508240BF8B9
:10132A007600E50824F4F8C3741096E433FAE50865
:10133A0024F5F8E5082403F9E6F708E609F708E6CC
:10134A0009F7E5082403F886820886830886F0E50B
:10135A00082408F91221ABF7E5082408F8E6700317
:10136A00021518E508240BF8E670C3C0029000576E
:10137A00E0FAA3E0FBE50824F4F8A90809E6F7096E
:10138A007700C007C006C003C0027402C0E0E4C010
:10139A00E0A8080886820886831222DAAC82AD8326
:1013AA0015811581D002D003D006D007E50824069E
:1013BA00F8A60408A605E5082406F8EAC396FAEB97
:1013CA000896FBC3EA9EEB9FD0024023900059E0A7
:1013DA00FCA3E0FDA80808A80808ECC396FCED08E1
:1013EA0096FDE50824FCF8C3EC96ED089650030236
:1013FA001518E5082408F8E6247F500AE508240BA6
:10140A00F87601021338E5082408F8B60D34E50821
:10141A0024FCF8A90809E726F609E70836F6E508DC
:10142A002409F88606088607E5082403F8E508244F
:10143A00F5F9740126F7E4083609F708E609F70210
:10144A00150AEA605AC007C006C002E50824F3F884
:10145A00E6C0E07410C0E0E5082408F8E6C0E0E55C
:10146A000824F8F8E6C0E008E6C0E0E50824FAF83F
:10147A00E6C0E008E6C0E0E50824FCF8E6C0E008BB
:10148A00E6C0E08E828F83120F2EE58124F7F58164
:10149A00D002D006D00774082EFEE43FFF8061C058
:1014AA0007C006C002E50824F3F8E6C0E0E5082410
:1014BA00F4F8E6C0E0E5082408F8E6C0E0E5082408
:1014CA00F8F8E6C0E008E6C0E0E50824FAF8E6C065
:1014DA00E008E6C0E0E50824FCF8E6C0E008E6C05B
:1014EA00E08E828F83120F2EE58124F7F581D002D8
:1014FA00D006D007E5082406F8E62EFE08E63FFFE8
:10150A00E50824F5F806B60002080602133885082D
:10151A0081D00822C008858108AE82AF837C007D15
:10152A0000E50824FAF8C3EC96ED08965053EE2C21
:10153A00FAEF3DFBC007C006C005C004E50824FC5D
:10154A00F8E6C0E008E6C0E0C002C003E50824FCF3
:10155A00F8E6C0E008E6C0E08A828B83121AC5E585
:10156A008124FAF581E50824F8F886820886831230
:10157A001777D004D005D006D0070CBC00A30D8085
:10158A00A0D00822C008858108AE82AF837C007D86
:10159A0000E50824FAF8C3EC96ED08965049E508E8
:1015AA0024FCF8E62CFA08E63DFBC007C006C00595
:1015BA00C004C002C003C006C007C002C0038E82B6
:1015CA008F83121AC5E58124FAF581E50824F8F813
:1015DA008682088683121777D004D005D006D007F2
:1015EA000CBC00AD0D80AAD00822C0088581080570
:1015FA00810581AE82AF83E50824FAF8E6C39EFC32
:10160A0008E69FFD0CBC00010DE50824F8F8E50882
:10161A0024FCF9E6C397FA08E60997FBA8080874B8
:10162A00012AF6E43B08F6C005C004E50824F8F8E8
:10163A00E6C0E008E6C0E0E50824FAF8E6C0E008FB
:10164A00E6C0E0E50824FCF8E6C0E008E6C0E08E63
:10165A00828F83121AC5E58124FAF581D004D00558
:10166A007E007F00A80808C3EE96EF0896503E7ADF
:10167A00007B00C3EA9CEB9D502CE50824F6F88613
:10168A0082088683C007C006C005C004C003C00222
:10169A00121777D002D003D004D005D006D0070A9B
:1016AA00BA00D00B80CD0EBE00BA0F80B790005999
:1016BA00E0FEA3E0FF1EBEFF011F900057E0FCA35F
:1016CA00E0FD1CBCFF011DC006C007C004C005E444
:1016DA00C0E0C0E0900000121AC5E58124FAF58145
:1016EA00850881D00822C008858108AE82AF83E5CB
:1016FA000824F6F8E6C0E008E6C0E0E50824F8F8B1
:10170A00E6C0E008E6C0E0E50824FAF8E6C0E0082A
:10171A00E6C0E0E50824FCF8E6C0E008E6C0E08E92
:0F172A00828F831215F4E58124F8F581D008220F
:10377C000000000000000000000000000000040435
:10378C00040404040004000000140A0A00000000F1
:10379C0000000000000014143F140A3F0A0A000045
:1037AC0000041E1505060C14150F0400000012155C
:1037BC000D0A142C2A1200000000040A0A1E15150A
:1037CC0009360000000202010000000000000000A9
:1037DC00002010080808080808102000000204083F
:1037EC00080808080804020000000004150E0E1555
:1037FC000400000000000404041F04040400000082
:10380C0000000000000000000002020100000000A7
:10381C00001F00000000000000000000000000007D
:10382C000002000000100808080404020202010053
:10383C0000000E1111111111110E000000000406F0
:10384C0004040404040E000000000E11110804020C
:10385C00011F000000000E11100C1010110E0000C2
:10386C000000080C0A0A091E0818000000001F01BD
:10387C00010F1010110E000000000E09010F1111A4
:10388C00110E000000001F090804040404040000C9
:10389C0000000E11110E1111110E000000000E117E
:1038AC0011111E10120E0000000000000400000098
:1038BC0000040000000000000004000000040400EC
:1038CC000020100804020408102000000000000072
:1038DC001F00001F00000000000204081020100848
:1038EC000402000000000E11110804040004000082
:1038FC0000000E111915151D011E00000000040416
:10390C000C0A0A1E1233000000000F12120E1212C3
:10391C00120F000000001E1101010101110E000028
:10392C0000000F1212121212120F000000001F12D0
:10393C000A0E0A02121F000000001F120A0E0A02D1
:10394C000207000000001C1201013911120C0000CA
:10395C0000003312121E12121233000000001F045A
:10396C0004040404041F000000003E0808080808B2
:10397C0008090700000037120A060A0A123700006D
:10398C000000070202020202223F000000001B1B83
:10399C001B1B15151515000000003B1216161A1AE4
:1039AC001217000000000E1111111111110E000060
:1039BC0000000F12120E02020207000000000E118E
:1039CC0011111117190E180000000F12120E0A1205
:1039DC001237000000001E1101060810110F000024
:1039EC0000001F1504040404040E00000000331230
:1039FC0012121212120C000000003312120A0A0CDE
:103A0C000404000000001515150E0A0A0A0A00002D
:103A1C0000001B0A0A04040A0A1B000000001B0A0F
:103A2C000A040404040E000000001F090804040228
:103A3C00121F0000001C04040404040404041C00F1
:103A4C00000202020404080808100000000E080816
:103A5C000808080808080E0000040A00000000000E
:103A6C000000000000000000000000000000003F0B
:103A7C000004000000000000000000000000000036
:103A8C00000C121C123C000000000302020E121269
:103A9C00120E000000000000001C1202021C0000AC
:103AAC0000001810101C1212123C00000000000044
:103ABC00000C121E021C000000003804041E04043A
:103ACC00041E000000000000003C120C021E221C10
:103ADC0000000302020E1212123700000000040054
:103AEC0000060404040E000000000800000C080886
:103AFC000808080700000302023A0A0E12370000F9
:103B0C000000070404040404041F0000000000006B
:103B1C00000F15151515000000000000000F121203
:103B2C001237000000000000000C1212120C0000F2
:103B3C0000000000000F1212120E0207000000001D
:103B4C00001C1212121C103800000000001B060290
:103B5C000207000000000000001E020C101E0000F6
:103B6C0000000004040E040404180000000000000F
:103B7C00001B1212123C0000000000000037120A59
:103B8C000C040000000000000015150E0A0A0000CD
:103B9C0000000000001B0A040A1B000000000000CB
:103BAC000037120A0C04040300000000001E080475
:103BBC00041E00000018080808040808080818006B
:103BCC00080808080808080808080808000604047B
:103BDC000408040404040600022518000000000078
:103BEC0000000000000000000000000000000000C9
:103BFC000000000000000008080808080808000081
:103C0C001818000000486C2412000000000000008E
:103C1C00000000000000002424247F1212127F12E6
:103C2C00121200000000081C2A2A0A0C1828282A44
:103C3C002A1C080800000022251515152A58545472
:103C4C00542200000000000C1212120A76252911D1
:103C5C00916E000000060604030000000000000046
:103C6C000000000000402010100808080808081088
:103C7C00102040000002040808101010101010084A
:103C8C00080402000000000008086B1C1C6B0808EC
:103C9C000000000000000000080808087F08080861
:103CAC000800000000000000000000000000000000
:103CBC00060604030000000000000000FE000000E7
:103CCC0000000000000000000000000000000000E8
:103CDC000606000000008040402020101008080458
:103CEC0004020200000000182442424242424242B6
:103CFC0024180000000000080E080808080808082E
:103D0C00083E00000000003C424242202010080403
:103D1C00427E00000000003C4242201820404042FD
:103D2C00221C0000000000203028242422227E20A7
:103D3C00207800000000007E0202021A2640404259
:103D4C00221C0000000000382402021A26424242C3
:103D5C00241800000000007E222210100808080819
:103D6C00080800000000003C424242241824424251
:103D7C00423C00000000001824424242645840407B
:103D8C00241C0000000000000000181800000000B7
:103D9C0018180000000000000000000800000000DF
:103DAC000008080400000040201008040204081059
:103DBC00204000000000000000007F0000007F0099
:103DCC000000000000000002040810204020100831
:103DDC00040200000000003C42424640201010004B
:103DEC00181800000000001C225A555555552D423C
:103DFC00221C00000000000808181414243C224265
:103E0C0042E700000000001F2222221E22424242F2
:103E1C00221F00000000007C42420101010101420E
:103E2C00221C00000000001F224242424242424239
:103E3C00221F00000000003F4212121E121202420A
:103E4C00423F00000000003F4212121E12120202FA
:103E5C00020700000000003C222201010171212216
:103E6C00221C0000000000E7424242427E424242D5
:103E7C0042E700000000003E08080808080808088F
:103E8C00083E00000000007C1010101010101010E4
:103E9C001010110F0000007722120A0E0A121222C3
:103EAC002277000000000007020202020202020256
:103EBC00427F000000000077363636362A2A2A2A3E
:103ECC002A6B0000000000E346464A4A52525262F6
:103EDC00624700000000001C224141414141414128
:103EEC00221C00000000003F424242423E020202FD
:103EFC00020700000000001C2241414141414D538A
:103F0C00321C60000000003F4242423E121222224C
:103F1C0042C700000000007C4242020418204042CC
:103F2C00423E00000000007F490808080808080805
:103F3C00081C0000000000E742424242424242425A
:103F4C00423C0000000000E74242222424141418D2
:103F5C00080800000000006B4949494955553622B4
:103F6C0022220000000000E7422424181818242400
:103F7C0042E7000000000077222214140808080809
:103F8C00081C00000000007E2120101008040442D0
:103F9C00423F0000007808080808080808080808CC
:103FAC000808780000000202040408080810102019
:103FBC0020204040001E1010101010101010101077
:103FCC0010101E000038440000000000000000002B
:103FDC0000000000000000000000000000000000D5
:103FEC00000000FF000608000000000000000000B8
:103FFC0000000000000000000000003C4278444239
:10400C0042FC0000000000030202021A2642424257
:10401C00261A0000000000000000003844020202D2
:10402C004438000000000060404040784442424266
:10403C0064D80000000000000000003C427E020238
:10404C00423C0000000000F08808087E08080808C0
:10405C00083E0000000000000000007C22221C0230
:10406C003C42423C000000030202023A46424242F9
:10407C0042E700000000000C0C00000E08080808C5
:10408C00083E0000000000303000003820202020C6
:10409C002020221E0000000302020272120A1612D5
:1040AC00227700000000000E08080808080808081D
:1040BC00083E0000000000000000007F92929292E7
:1040CC0092B70000000000000000003B4642424254
:1040DC0042E70000000000000000003C4242424267
:1040EC00423C0000000000000000001B264242423F
:1040FC00221E0207000000000000007844424242E9
:10410C00447840E000000000000000774C040404F8
:10411C00041F0000000000000000007C42023C4034
:10412C00423E0000000000000008083E0808080895
:10413C0008300000000000000000006342424242D0
:10414C0062DC000000000000000000E742242414A0
:10415C000808000000000000000000EB494955551C
:10416C00222200000000000000000076241818181D
:10417C00246E000000000000000000E7422424141C
:10418C0018080807000000000000007E2210080834
:10419C00447E000000C02020202020102020202061
:1041AC002020C00010101010101010101010101043
:1041BC001010101000060808080808100808080855
:1041CC00080806000C32C2000000000000000000CD
:0441DC0000000000DF
:10173900AF827DB27E061DBDFF011EED4E70F7DF43
:10174900F12275CEDC228582CFE5CD30E7FB75CD60
:10175900C022AF82C297C2968F8212174FD29722A8
:10176900AF82C297D2968F8212174FD29722AE823A
:10177900AF83C297D2968F058D82C007C006121714
:101789004FD006D0078E8212174FD29722C00885F4
:10179900810812175BE50824FDF88682121769D0C3
:1017A900082290005EE0F58202175BAE82AF83905B
:1017B9000059E0FCA3E0FD1CBCFF011D900057E0AF
:1017C900FAA3E0FB1ABAFF011BC007C006C004C098
:1017D90005C002C003E4C0E0C0E0900000121AC5D1
:1017E900E58124FAF581D006D0077C007D009000C0
:1017F90057E0FAA3E0FBC3EC9AED9B50407A007BDB
:1018090000900059E0F8A3E0F9C3EA98EB99502653
:101819008E828F83C007C006C005C004C003C00202
:10182900121777D002D003D004D005D006D0070A0A
:10183900BA00CE0B80CB0CBC00B40D80B122C0081D
:10184900858108AE82AF83E50824FCF8E6C0E0088C
:10185900E6C0E0C006C007E50824FCF8E6C0E008D9
:10186900E6C0E08E828F83121AC5E58124FAF581DC
:10187900900068E0FEA3E0FF8E828F83121777D075
:101889000822D292758232121739C29275823212A7
:101899001739D29275823202173912174B12188BE7
:1018A90075821112175B900078121C0F7582B112A4
:1018B900175B75820112176975822C121769758277
:1018C9002D1217697582B212175B75820112176999
:1018D90075822C12176975822D1217697582B312D8
:1018E900175B75820112176975822C121769758247
:1018F9002D12176975820112176975822C121769E1
:1019090075822D1217697582B412175B75820712D9
:1019190017697582C012175B7582A21217697582E1
:10192900021217697582841217697582C112175BD1
:101939007582C51217697582C212175B75820A1200
:1019490017697582001217697582C312175B758250
:101959008A12176975822A1217697582C412175B70
:1019690075828A1217697582EE1217697582C51216
:10197900175B75820E12176975823612175B7582AD
:10198900C01217697582E012175B75820F12176909
:1019990075821A12176975820F12176975821812E2
:1019A900176975822F12176975822812176975824E
:1019B9002012176975822212176975821F12176919
:1019C90075821B121769758223121769758237127E
:1019D900176975820012176975820712176975826E
:1019E900021217697582101217697582E112175B65
:1019F90075820F12176975821B12176975820F128A
:101A090017697582171217697582331217697582FA
:101A19002C12176975822912176975822E12176996
:101A290075823012176975823012176975823912F9
:101A3900176975823F1217697582001217697582D5
:101A490007121769758203121769758210121769CF
:101A590075822A12175B7582001217697582001246
:101A6900176975820012176975827F121769758265
:101A79002B12175B7582001217697582001217699C
:101A890075820012176975829F1217697582F012A3
:101A9900175B7582011217697582F612175B7582D9
:101AA9000012176975823A12175B75820512176958
:101AB90075822912175B758202021B64C008858131
:101AC90008AE82AF83900060E0F582C007C00612BD
:101AD900175B758200121769D006D0078E8212171C
:101AE90069758200121769E50824FAF886078F825A
:101AF900121769900062E0F58212175B7582001275
:101B09001769E50824FCF886078F82121769758220
:101B190000121769E50824F8F886078F82121769F9
:101B29001217ABD00822C008858108AE82AF83E5C1
:101B39000824FCF8E6C0E008E6C0E0C006C007E5F6
:101B49000824FCF8E6C0E008E6C0E08E828F831224
:101B59001AC5E58124FAF581D00822AF8290006088
:101B6900742AF0E4A3F0900062742BF0E4A3F090DF
:101B7900005E742CF0E4A3F0EF24FC500122EF2F57
:101B8900901B8D73800680238040805B9000577482
:101B990080F0E4A3F090005974A0F0E4A3F074C0BD
:101BA900C0E075823612179615812290005774A0ED
:101BB900F0E4A3F09000597480F0E4A3F074A0C09D
:101BC900E07582361217961581229000577480F0BD
:101BD900E4A3F090005974A0F0E4A3F0C0E075828A
:101BE9003612179615812290005774A0F0E4A3F0DD
:101BF9009000597480F0E4A3F07460C0E0758236F7
:061C09001217961581225E
:0441EF000000FFFFCE
:101C0F00AE82AF837C007D00C3EC9EED64808FF0CD
:101C1F0063F08095F050147AE87B031ABAFF011B2A
:101C2F00EA4B70F70CBC00E00D80DD22AE82AF8373
:101C3F007C007D00C3EC9EED64808FF063F0809597
:101C4F00F050147A017B001ABAFF011BEA4B70F7B0
:101C5F000CBC00E00D80DD22A8811818C6B2E7C6C3
:101C6F00021E9EC008E581F5082408F58190006CDE
:101C7F00A80808E0F6A3E008F6A3E008F6A3E0083A
:101C8F00F6A8080808860208E6C313CA13CAC313C6
:101C9F00CA13CAFB08E6030354C04BFBE603035405
:101CAF003FFE7F00A80808EA66F6EB0866F6EE0826
:101CBF0066F6EF0866F6A80808E626FD08E633FE86
:101CCF0008E633FF7C00A80808E6620408E6620510
:101CDF0008E6620608E66207E5082405F8A6040888
:101CEF00A60508A60608A607E5082405F8080808AB
:101CFF00E6C313FAE4FBFEFFE5082405F8E66202EB
:101D0F0008E6620308E6620608E6620790006CEADE
:101D1F00F0EBA3F0EEA3F0EFA3F053037F8A828BD7
:101D2F0083850881D00822AE82AF837D007C00902E
:101D3F00006CEEF0EFA3F0EDA3F074804CA3F02253
:0441F3000100008047
:101D4F00121DF2BC0003022088EF60FA30D502B2F8
:101D5F00D1E583B4FF0302209EE582B4FF03022086
:101D6F009E258340072482400B0220882483145031
:101D7F000302209EF582EA8DF0A4A8F0EA8EF0A46B
:101D8F0028F8E435F0F9EB8DF0A428E935F0F9E403
:101D9F0033CA8FF0A429F9EA35F0FAEBF88EF0A4E4
:101DAF0029F9EA35F0FAE433FBEC8DF0A429F9EACE
:101DBF0035F0FAE43BFBE88FF0A42AFAEB35F0FBA1
:101DCF00E433CCFD8EF0A42AFAEB35F0FBE43CFCB7
:101DDF00ED8FF0A42BFBEC35F0FC20E703121E2057
:101DEF00022067AA82AB83A2F73392D1F5826002F9
:101DFF00D2F7ACF0E58124F9F8E6FD08E6FE088697
:101E0F00F008E6A2F73392D5F5836002D2F7AFF070
:011E1F0022A0
:06004000E478FFF6D8FD94
:101E20007804EC7011E58224F8500AF582E4C9CAFE
:101E3000CBFCD8EF22EC7820058220E713D5820175
:101E400022C3E933F9EA33FAEB33FBEC33FCD8EA8B
:031E5000158222D6
:10001E00790CE94400601B7A019041EB786475A07D
:10002E0000E493F2A308B8000205A0D9F4DAF27541
:02003E00A0FF21
:101E530020F71130F6138883A88220F509F6A883AA
:101E63007583002280FEF280F5F022FFA881181806
:101E7300121F15D2D133E6400730E70B75820022DB
:101E830020E70675820122C2D1121EF7E97003F51D
:0B1E9300822220D101B3E433F582224B
:100046007800E84400600A790175A000E4F309D855
:10005600FC7863E84400600C7901900001E4F0A3A9
:04006600D8FCD9FAEF
:101E9E00121DF27900E583B58202800D50031220E7
:101EAE00B6E583C3958212239CE5D0C465D020E1AC
:101EBE0017EA2DFAEB3EFBEC3FFC5009740112239E
:101ECE009CEC4480FC022067C3EA9DFAEB9EFBEC7F
:101EDE009FFC500FC3E499F9E49AFAE49BFBE49C4F
:101EEE00FCB2D1121E200220677901AA82E68F82EF
:101EFE00B5821318E6B5F00E18E6B5830918E68A12
:101F0E0082B58202790022B4800FE5F0700AE58373
:101F1E007006E58270027F00EFB6801518B60010CD
:101F2E0018B6000B18B60006080808760022080836
:101F3E000822C008858108C082058105810581E5DA
:101F4E000824FBF8A9080909E6F708E609F708E6E8
:101F5E0009F7A808080886820886830886F01221E9
:101F6E00ABFAA31221ABFBA31221ABFF74012AFC27
:101F7E00E43BFD8F06A8080808868208868308863B
:101F8E00F0EC121E53A3ED121E53A3EE121E538A33
:101F9E00828B838FF0A80808E6121E53850881D025
:101FAE000822C008858108C082C083C0F0AF080F28
:101FBE007E007D40E50824FAF8E6C0E0E50824FB43
:101FCE00F8E6C0E008E6C0E008E6C0E0C007C006DC
:101FDE00C005901F40122522AE82AF83E58124F901
:101FEE00F581A8080886030886040886058B828C6E
:101FFE00838DF0E4121E538E828F83850881D00864
:10200E0022C008E581F50824F8FFE50824FBFE7DD3
:10201E00007C40C007E50824F8F8E6C0E008E6C0FA
:10202E00E008E6C0E0C006C005C004901F401225BF
:10203E0022AE82AF83E58124F9F581E50824FBF811
:10204E0086030886040886058B828C838DF0E41245
:10205E001E538E828F83D00822B98003EA13B340B9
:10206E0010EA2401FAE43BFBE43CFC50047C8005BE
:10207E0082BC000EBB000BBA0008E4F5F0F583F548
:10208E008222A2D1E582138CF092F78B838A822270
:10209E00E4F583F58275F080F4A2D11322E4F58382
:1020AE00F58275F0C0747F22E582C583F582A2D1D8
:1020BE0033A2D592D11392D5ECCFFCEBCEFBEACD69
:1020CE00FA22AA82AB831221AB6003A380F8C3E588
:1020DE00829AF582E5839BF58322121DF230D5029A
:1020EE00B2D1BF0009BC00030220AB02209EBC008F
:1020FE0003022088E583B4FF0BE582B4FF030220C0
:10210E00AB022088E582B4FF0302209EC395835064
:10211E0007247F400B022088248014500302209E47
:10212E00F582C3ED9AEE9BEF9C40111582C3EA3304
:10213E00F9EB33FAEC33FBE433FC8005E4CCCBCA89
:10214E00F9C08275F019C3E99DEA9EEB9FEC9400ED
:10215E00D5F002802D400EE99DF9EA9EFAEB9FFB29
:10216E00EC9400FCC3B3E833F8E58233F582E583E3
:10217E0033F583C3E933F9EA33FAEB33FBEC33FC83
:10218E0080C4B3E4F938FAE43582FBE43583FCD03D
:0D219E0082500405827C80121E2002207FEA
:0D0011007581201223DFE582600302000EDE
:1021AB0020F71430F6148883A88220F507E6A8835D
:1021BB0075830022E280F7E49322E022E4AC82FBF9
:1021CB00FAF974860222D07F861235DEF58222C0A0
:1021DB0008858108AE82E583FF33E433FD6009C3D4
:1021EB00E49EFBE49FFC80048E038F04E50824FC33
:1021FB00F808E630E70FE50824FCF8C3E496FE0880
:10220B00E496FF800AE50824FCF88606088607C0DA
:10221B0005C006C0078B828C83122248AE82AF8327
:10222B0015811581D005ED600DC3E49EFCE49FFD87
:10223B008C828D8380048E828F83D00822C0088588
:10224B008108AE82AF837D007C00E50824FCF80892
:10225B00E6235401FB702FE50824FCF8E626F6086C
:10226B00E633F6E50824FCF8C3EE96EF089650111A
:10227B00E50824FCF808E618C313C613C608F68055
:10228B00050C8C0580C4E50824FCF8C3EE96EF081A
:10229B0096400DE50824FCF8EEC396FEEF0896FF7A
:1022AB00E50824FCF808E618C313C613C608F68D18
:1022BB00041DEC70D18E828F83D00822FCABF0AA68
:1022CB0083A982749EC2D1F582121E20022067C0A0
:1022DB0008858108AE82E583FF33E433FD6009C3D3
:1022EB00E49EFBE49FFC80048E038F04E50824FC32
:1022FB00F808E633E433FF600FE50824FCF8C3E489
:10230B0096FA08E496FE800AE50824FCF886020893
:10231B008606C007C005C002C0068B828C831223C1
:10232B0050AC82AE8315811581D005D007EF6D605F
:10233B000DC3E49CFDE49EFF8D828F8380048C8211
:10234B008E83D00822C008858108AE82AF837C00C3
:10235B007D007B10EF235401FAEE2EFEEF33FFECE2
:10236B002CFCED33FDEA6003430401E50824FCF883
:10237B00C3EC96ED08964010E50824FCF8ECC396E8
:10238B00FCED0896FD430601DBCA8E828F83D008D5
:10239B00226040F82582500274FFF582E824F85041
:1023AB001ECCCBCAF9E4CC24F85014CBCAF9E4CB3D
:1023BB0024F8500BCAF9E4CA24F8500379002224FC
:1023CB00086010F8C3EC13FCEB13FBEA13FAE913E8
:1023DB00F9D8F12275820022C008858108AF82747A
:1023EB00302FFF24C6501074072FFFE50824FDF88B
:1023FB00E6600474202FFFE50824F8F8E6C0E00837
:10240B00E6C0E008E6C0E0122417800FE50824FBC5
:10241B00F8E6C0E008E6C0E08F8222158115811531
:10242B0081D00822C008858108E582FFC4540FFEC5
:10243B00C007E50824F8F8E6C0E008E6C0E008E6C7
:10244B00C0E0E50824FBF8E6C0E008E6C0E0E508DC
:10245B0024FDF8E6C0E08E821223E3E58124FAF531
:10246B0081D00753070FE50824F8F8E6C0E008E62B
:10247B00C0E008E6C0E0E50824FBF8E6C0E008E6AB
:10248B00C0E0E50824FDF8E6C0E08F821223E3E507
:10249B008124FAF581D00822C0088581080581A91D
:1024AB008287040987050987060987071919197493
:1024BB000429F8C000A808087620D000C001E62641
:1024CB00FAEF2354014202A602EC2CFCED33FDEE95
:1024DB0033FEEF33FFC000E50824FDF8C3EA96D0C6
:1024EB0000D00140148603C000E50824FDF8EBC3BF
:1024FB0096FBD000A603430401C000A8080816A849
:10250B000808E6D00070B5A70409A70509A70609B6
:10251B00A7071581D00822C008858108C082C08317
:10252B00E5812423F581E508240CF8E4F608F6E5AB
:10253B00082405F8E5082414F6E5082420C8E50866
:10254B002412C82405F6E5082414F82404FAE50837
:10255B002403F9A702E5082404F9A702E50824F8E7
:10256B00F987060987050987048E828D838CF01203
:10257B0021ABFFE50824F8F974012EF7E43D09F7C8
:10258B0009A704EFFE70030235CCBE2502800302BF
:10259B00358EC200C201C202C203C204C205C2060A
:1025AB00C207E508241BF97700E5082406F9E4F7D0
:1025BB0009F7E508241CF977FF0977FFE50824F8EC
:1025CB00F9C000E5082408F8E7F609E708F609E77B
:1025DB0008F6D000E5082408F98782098783098764
:1025EB00F0C000E508240BF81221ABF6A31919A7CC
:1025FB008209A783E5082408F9E50824F8F8E7F62B
:10260B0009E708F609E708F6D000E508240BF9B747
:10261B002543C002C000E50824FBF9E7C0E009E749
:10262B00C0E009E7C0E01226368012A90809E7C00E
:10263B00E009E7C0E0E508240BF987822215811534
:10264B00811581D000D002E508240CF907B70002F0
:10265B000907022567E508240BF9B7300050030280
:10266B002721E508240BF9E724C65003022721E5AF
:10267B0008241CF9B7FF5909B7FF55C002C000C0A9
:10268B0020E5082406F9E7C0E009E7C0E090000A5E
:10269B00123603AB82AF8315811581D020D000D0C9
:1026AB0002E508240BF987057E00ED2BFBEE3FFFBF
:1026BB00E5082406F9EB24D0F7EF34FF09F7E5081A
:1026CB002406F9E7094760030225DFD2010225DF63
:1026DB00C002C000C020E508241CF9E7C0E009E7F0
:1026EB00C0E090000A123603AE82AF8315811581CC
:1026FB00D020D000D002E508240BF987047D00EC34
:10270B002EFEED3FFFE508241CF9EE24D0F7EF3445
:10271B00FF09F70225DFE508240BF9B72E1DE508A5
:10272B00241CF9B7FF0609B7FF0280030225DFE57A
:10273B0008241CF9E4F709F70225DFE508240BF957
:10274B00B76100401CE508240BF9E724854012E52E
:10275B0008240BF9E754DFF7E5082413F977018018
:10276B0007E5082413F97700E508240BF9B72003D4
:10277B00022845E508240BF9B72B03022840E5088E
:10278B00240BF9B72D0302283BE508240BF9B742BC
:10279B000302284AE508240BF9B74303022854E542
:1027AB0008240BF9B74403022DC0E508240BF9B735
:1027BB004603022DE7E508240BF9B748030225DF92
:1027CB00E508240BF9B74903022DC0E508240BF9E2
:1027DB00B74A030225DFE508240BF9B74C028064E6
:1027EB00E508240BF9B74F03022DCCE508240BF9B0
:1027FB00B75003022B92E508240BF9B753030228B9
:10280B00C4E508240BF9B754030225DFE508240BB4
:10281B00F9B75503022DD5E508240BF9B758030278
:10282B002DDEE508240BF9B75A030225DF022DEB49
:10283B00D2000225DFD2020225DFD2030225DFD22E
:10284B00050225DFD2060225DF300517C000E5089B
:10285B0024F7F8E614F9E50824F7F8A601D0008769
:10286B00068014E50824F7F9E724FEFDE50824F7B4
:10287B00F9A7058D018706C002C000C020E508241A
:10288B00FBF9E7C0E009E7C0E009E7C0E012289DCB
:10289B00800DA90809E7C0E009E7C0E08E82221588
:1028AB008115811581D020D000D002E508240CF9C8
:1028BB0007B700020907022E4FE5082414F9C000E0
:1028CB00E50824F7F8E624FDFEE50824F7F8A6064C
:1028DB00A8068604088605088606D000A70409A763
:1028EB000509A70619198C828D838EF0C002C001D1
:1028FB00C000C0201220D0C000C8E5082410C8A614
:10290B008208A683D000D020D000D001D002C00016
:10291B00E508241CF8B6FF0608B6FF028004D000B9
:10292B008016E5082410F8C001E508241CF9E6F729
:10293B0008E609F7D001D000300003022A1BC000C3
:10294B00E5082410F8C001E5082406F9C3E697084A
:10295B00E60997D001D0004003022A1BC000E5080E
:10296B002406F8C001E5082410F9E6C397FE08E633
:10297B000997FDE508240CF8E508240EF9E6F7089D
:10298B00E609F7D001D0008E048D071EBEFF011D96
:10299B00EC4F605AC006C005C002C001C000C02089
:1029AB008500F0E50824FBF8E6C0E008E6C0E00887
:1029BB00E6C0E0A8F01229C580118500F0A8080830
:1029CB00E6C0E008E6C0E07582202215811581156E
:1029DB0081D020D000D001D002D005D006C000E5B8
:1029EB0008240EF806B600020806D0008099C00035
:1029FB00E508240EF8C001E508240CF9E6F708E613
:102A0B0009F7D001E5082406F8A60608A605D000AC
:102A1B00C000E508241CF88604088607E508240C8A
:102A2B00F8C001E508240EF9E6F708E609F7D0012E
:102A3B00D000870309870509870619198B828D83B7
:102A4B008EF01221ABFBFE7003022ADDC3E49C74F3
:102A5B00808FF063F08095F050781CBCFF011FC095
:102A6B0007C004C002C001C000C0208500F0E5080B
:102A7B0024FBF8E6C0E008E6C0E008E6C0E0A8F0FA
:102A8B00122A9080108500F0A80808E6C0E008E63E
:102A9B00C0E08E8222158115811581D020D000D007
:102AAB0001D002D004D007C000E508240EF806B60A
:102ABB0000020806D0008703098705098706191944
:102ACB000BBB00010DA70309A70509A706191902DE
:102ADB002A3DE508240EF9C000E508240CF8E7F6BA
:102AEB0009E708F6D000200003022E4FE50824105A
:102AFB00F9C000E5082406F8C3E79609E70896D065
:102B0B00004003022E4FE5082406F9C000E5082417
:102B1B0010F8E7C396FE09E70896FFE508240EF9BF
:102B2B00E5082419F8E7F609E708F6D0008E048FBC
:102B3B00051EBEFF011FEC4D7003022E31C007C0F6
:102B4B0006C002C000C020E50824FBF9E7C0E0097D
:102B5B00E7C0E009E7C0E0122B67800EA90809E780
:102B6B00C0E009E7C0E0758220221581158115812F
:102B7B00D020D000D002D006D007E5082419F907E1
:102B8B00B70002090780A6E5082414F9C000E50880
:102B9B0024F7F8E624FDFDE50824F7F8A605A805BB
:102BAB008603088604088605D000A70309A7040935
:102BBB00A7051919E5082414FE2402F98707BF801D
:102BCB000040047D438014BF600040047D50800BA7
:102BDB00BF400040047D4980027D58C006C005C03F
:102BEB0002C000C020E50824FBF9E7C0E009E7C0FC
:102BFB00E009E7C0E0122C05800DA90809E7C0E049
:102C0B0009E7C0E08D8222158115811581D020D076
:102C1B0000D002D005D006E508240CF9740127FC7E
:102C2B00E40937FBC006C005C004C003C002C000E6
:102C3B00C020E50824FBF9E7C0E009E7C0E009E79D
:102C4B00C0E0122C52800EA90809E7C0E009E7C0CA
:102C5B00E075823A22158115811581D020D000D0E4
:102C6B0002D003D004D005D0060CBC00010BC0066B
:102C7B00C005C004C003C002C000C020E50824FB8F
:102C8B00F9E7C0E009E7C0E009E7C0E0122C9C803F
:102C9B000EA90809E7C0E009E7C0E07582302215EC
:102CAB008115811581D020D000D002D003D004D063
:102CBB0005D0060CBC00010BC006C005C004C00348
:102CCB00C002C000C020E50824FBF9E7C0E009E71B
:102CDB00C0E009E7C0E0122CE6800EA90809E7C0A6
:102CEB00E009E7C0E075827822158115811581D046
:102CFB0020D000D002D003D004D005D00674012C14
:102D0B00FCE43BFFBD49028052BD5002804DEE04F6
:102D1B00F98705C007C004C002C000C020E5082425
:102D2B00FBF9E7C0E009E7C0E009E7C0E0A9080943
:102D3B00E7C0E009E7C0E0E5082413F9E7C0E08D40
:102D4B008212242FE58124FAF581D020D000D00205
:102D5B00D004D00774022CFCE43FFFE5082405F9EE
:102D6B0087018705C007C004C002C000C020E5086A
:102D7B0024FBF9E7C0E009E7C0E009E7C0E0A908D8
:102D8B0009E7C0E009E7C0E0E5082413F9E7C0E074
:102D9B008D8212242FE58124FAF581D020D000D02A
:102DAB0002D004D007E508240CF974022CF7E43F99
:102DBB0009F7022E4FD204E508241BF9770A022EDD
:102DCB004FE508241BF97708807AE508241BF9776F
:102DDB000A8071E508241BF977108068D20780649C
:102DEB00C002C000C020E50824FBF9E7C0E009E7FA
:102DFB00C0E009E7C0E0122E068012A90809E7C05F
:102E0B00E009E7C0E0E508240BF98782221581155C
:102E1B00811581D020D000D002E508240CF907B72A
:102E2B0000020907801EE5082419F9C000E50824F3
:102E3B000CF8E7F609E708F6D000E5082406F9A731
:102E4B000609A707200703022F43E5082414F9C03E
:102E5B0000E50824F7F8E624FCFFE50824F7F8A6BC
:102E6B0007A8078604088605088606088607A704B0
:102E7B0009A70509A70609A707191919E5082414B5
:102E8B00F977E00977410977801919E508240CF8DF
:102E9B008604088603D000C000E5082408F8E7F68E
:102EAB0009E708F609E708F61919E5082408F87484
:102EBB000126FDE40836FE088607A70509A70609C3
:102ECB00A7071919E5082408F8868208868308865F
:102EDB00F01221ABFFD000EFFE7003022567C00498
:102EEB00C003C002C001C0008500F0E50824FBF858
:102EFB00E6C0E008E6C0E008E6C0E0A8F0122F0D3F
:102F0B0080108500F0A80808E6C0E008E6C0E08E57
:102F1B008222158115811581D000D001D002D003FA
:102F2B00D0040CBC00010BC000E508240CF8A6046F
:102F3B0008A603D000022EA2E508241BF9E77003B4
:102F4B00022567E5082412F98707300565C007E5F8
:102F5B00082414F9C000E50824F7F8E614FEE50888
:102F6B0024F7F8A606A8068606D0008E047D007E00
:102F7B00007F00A70409A70509A70609A7071919C8
:102F8B0019D00730040302305AC00787040987059C
:102F9B000987060987071919197D007E007F00A78D
:102FAB000409A70509A70609A707191919D00702CC
:102FBB00305A30063AC007E5082414F9C000E5087A
:102FCB0024F7F8E624FCFEE50824F7F8A606A80685
:102FDB008604088605088606088607D000A704091C
:102FEB00A70509A70609A707191919D0078060C0FB
:102FFB0007E5082414F9C000E50824F7F8E624FED9
:10300B00FEE50824F7F8A606A8068605088606D06E
:10301B0000EEFC3395E0FEFFA70509A70409A70600
:10302B0009A707191919D007200424C00787040919
:10303B0087050987060987071919197E007F00A7DD
:10304B000409A70509A70609A707191919D00730FD
:10305B00044CC007E5082414F98704098705098780
:10306B0006098707191919EFD00730E72FC0078713
:10307B0004098705098706098707191919C3E49CF1
:10308B00FCE49DFDE49EFEE49FFFA70409A7050950
:10309B00A70609A707191919D0078002C204D20580
:1030AB008F01C000E5082410F8E4F608F6D000E51F
:1030BB000824142404C000F87600D0008805C00250
:1030CB00C001C000C0208500F0E508241BF8E6C055
:1030DB00E08D821224A31581D020D000D001D00224
:1030EB00200528C000E5082403F88600E6C454F048
:1030FB00FDE5082403F886008604D000ECC4540FC9
:10310B004205E7FC4205A70519800AC000A8028604
:10311B0005D000A705C000E5082410F806B600028C
:10312B000806D000B20586030886040886050886C3
:10313B0007181818EB4C4D4F60030230BA8907E59E
:10314B00082410F9C000E508241EF8E7F609E70883
:10315B00F6D000E5082406F9E70947700AE50824CC
:10316B0006F9770109770030010302322A30000398
:10317B0002322AE508240CF98704098703E50824A1
:10318B0006F9C000E5082410F8E7F609E708F6D0C1
:10319B0000C007E508241EF987070F8F067F00E59F
:1031AB00082410F9C3EE97EF0997D0075053C007C7
:1031BB00C004C003C002C000C020E50824FBF9E72F
:1031CB00C0E009E7C0E009E7C0E01231DA800EA9E0
:1031DB000809E7C0E009E7C0E075822022158115D8
:1031EB00811581D020D000D002D003D004D0070CA1
:1031FB00BC00010BE5082410F917B7FF0209178073
:10320B0090E508240CF9A70409A703E5082410F995
:10321B00C000E5082406F8E7F609E708F6D0003009
:10322B000452C007C002C000C020E50824FBF9E728
:10323B00C0E009E7C0E009E7C0E012324A800EA9FE
:10324B000809E7C0E009E7C0E075822D221581155A
:10325B00811581D020D000D002D007E508240CF9CD
:10326B0007B700020907E5082406F917B7FF02099B
:10327B0017023332E508241EF9E7094770030233BE
:10328B0032300251C007C002C000C020E50824FB49
:10329B00F9E7C0E009E7C0E009E7C0E01232AC8013
:1032AB000EA90809E7C0E009E7C0E075822B2215DB
:1032BB008115811581D020D000D002D007E50824DC
:1032CB000CF907B700020907E5082406F917B7FF41
:1032DB00020917805230034FC007C002C000C02044
:1032EB00E50824FBF9E7C0E009E7C0E009E7C0E027
:1032FB00123300800EA90809E7C0E009E7C0E075AA
:10330B00822022158115811581D020D000D002D0CA
:10331B0007E508240CF907B700020907E50824069E
:10332B00F917B7FF0209173000030233CDE5082464
:10333B000CF9C000E5082410F8E7F609E708F6D009
:10334B0000E5082406F98703098704C0078B068C60
:10335B00071BBBFF011CE508241EF9C3E79E09E709
:10336B009FD00740030234163001067D307E00806B
:10337B00047D207E00C007C004C003C002C000C093
:10338B0020E50824FBF9E7C0E009E7C0E009E7C046
:10339B00E01233A1800DA90809E7C0E009E7C0E0FE
:1033AB008D8222158115811581D020D000D002D0BD
:1033BB0003D004D007E5082410F907B7000209076A
:1033CB008089E5082406F9C000E508241EF8C3E649
:1033DB009708E60997D0005027E5082406F9C000A6
:1033EB00E508241EF8E7C396C0E009E70896C0E09D
:1033FB00E508240FF9D0E0F719D0E0F7D0008029C9
:10340B00E508240EF9E4F709F7801EE5082410F906
:10341B00C000E508240CF8E7F609E708F6D000E54C
:10342B0008240EF9A70309A7048F01C000E508249F
:10343B000CF88604088607E508241EF8C001E50889
:10344B002410F9E6F708E609F7D001D000C000E533
:10345B00082410F88603088606E5082410F816B62B
:10346B00FF020816D000EB4E7003023500B20520A8
:10347B00051009E7C4540FFEC000A802A606D00031
:10348B00800C8706740F5EC000A802F6D000C00047
:10349B00E5082404F886008606D000C007C004C0E7
:1034AB0002C001C000C0208500F0E50824FBF8E64F
:1034BB00C0E008E6C0E008E6C0E0A8F08500F0A890
:1034CB000808E6C0E008E6C0E0A8F08500F0E508D3
:1034DB002413F8E6C0E08E821223E3E58124FAF58B
:1034EB0081D020D000D001D002D004D0070CBC007A
:1034FB00010F023458E508240CF9A70409A707208B
:10350B000003022567E5082419F9A70409A707E5B5
:10351B0008240EF987040987058C038D071CBCFF53
:10352B00011DEB4F7003022567C005C004C002C02C
:10353B0000E50824FBF9E7C0E009E7C0E009E7C0B4
:10354B00E0123551800EA90809E7C0E009E7C0E099
:10355B0075822022158115811581D000D002D004EF
:10356B00D005E5082419F907B700020907E5082477
:10357B0019F9C000E508240CF8E7F609E708F6D0BE
:10358B00008096C002C000E50824FBF9E7C0E00903
:10359B00E7C0E009E7C0E01235A7800DA90809E7ED
:1035AB00C0E009E7C0E08E8222158115811581D01C
:1035BB0000D002E508240CF907B700020907022521
:1035CB0067E508240CF88682088683850881D00875
:0135DB0022CD
:0B41E0003C4E4F20464C4F41543E0027
:1035DC007F9E1236A130D103022088C3EF95825012
:1035EC000974FFF5F0F583F58222790012239C898A
:1035FC00828A838BF0EC22C008858108C082C0834C
:10360C00E5812405F581AF080FE5082403F8A6072A
:10361C00087600087640E50824FCFD7E007F40E536
:10362C00082406F9A808088604E50824FCF8860393
:10363C008CF0EBA4F709A7F0E508240604F987043D
:10364C00A80808860374012DFAE43EFE8A828E8354
:10365C008FF01221AB8BF0A4FBE5082403F8740166
:10366C0026FDE40836FE0886078D828E838FF012C5
:10367C0021ABFDE50824FCF886078DF0EFA42B2C7C
:10368C00F7E5082406F987060987078E828F83855C
:10369C000881D00822AA82AB83A2F73392D1F5829B
:0736AC006002D2F7ACF0222E
:00000001FF
